:1000000009C035C020C01FC01EC01DC01DC01BC000
:100010001AC019C011241FBECFE9CDBF10E0A0E661
:10002000B0E0E0E5F1E002C005900D92A236B10724
:10003000D9F720E0A2E6B0E001C01D92A336B207D6
:10004000E1F73AD083C0DCCF1F920F920FB60F9228
:1000500011248F931FBC13BE89B78B7F89BF109269
:1000600062008F910F900FBE0F901F9018951F92F6
:100070000F920FB60F9211248F938091600086BF6C
:100080008FB582688FBD83B7856083BF89B7846071
:1000900089BF81E0809362008F910F900FBE0F9017
:1000A0001F90189587B980E28A95F1F7369A3699AC
:1000B000FECF84B195B10895F89489E087BB83E0C1
:1000C00088BB89B7846089BF85B7836085BF8BB7DC
:1000D00080648BBF86B1836886B9789404EF1FEF84
:1000E000C1E0809162008111FCCF82E0DBDFB801CA
:1000F00006D0665A60936000C0936200F2CF97FB0F
:10010000072E16F4009406D077FD08D00BD007FC1C
:1001100005D03EF4909581959F4F08957095619517
:100120007F4F0895AA1BBB1B51E107C0AA1FBB1F2D
:10013000A617B70710F0A61BB70B881F991F5A9573
:10014000A9F780959095BC01CD010895F894FFCF53
:020150005A0053
:00000001FF
